{
  "contractName": "DaiToken",
  "abi": [
    {
      "inputs": [],
      "stateMutability": "nonpayable",
      "type": "constructor"
    },
    {
      "anonymous": false,
      "inputs": [
        {
          "indexed": true,
          "internalType": "address",
          "name": "_owner",
          "type": "address"
        },
        {
          "indexed": true,
          "internalType": "address",
          "name": "_spender",
          "type": "address"
        },
        {
          "indexed": false,
          "internalType": "uint256",
          "name": "_value",
          "type": "uint256"
        }
      ],
      "name": "Approval",
      "type": "event"
    },
    {
      "anonymous": false,
      "inputs": [
        {
          "indexed": true,
          "internalType": "address",
          "name": "_from",
          "type": "address"
        },
        {
          "indexed": true,
          "internalType": "address",
          "name": "_to",
          "type": "address"
        },
        {
          "indexed": false,
          "internalType": "uint256",
          "name": "_value",
          "type": "uint256"
        }
      ],
      "name": "Transfer",
      "type": "event"
    },
    {
      "inputs": [
        {
          "internalType": "address",
          "name": "",
          "type": "address"
        },
        {
          "internalType": "address",
          "name": "",
          "type": "address"
        }
      ],
      "name": "allowance",
      "outputs": [
        {
          "internalType": "uint256",
          "name": "",
          "type": "uint256"
        }
      ],
      "stateMutability": "view",
      "type": "function",
      "constant": true
    },
    {
      "inputs": [
        {
          "internalType": "address",
          "name": "",
          "type": "address"
        }
      ],
      "name": "balanceOf",
      "outputs": [
        {
          "internalType": "uint256",
          "name": "",
          "type": "uint256"
        }
      ],
      "stateMutability": "view",
      "type": "function",
      "constant": true
    },
    {
      "inputs": [],
      "name": "decimals",
      "outputs": [
        {
          "internalType": "uint8",
          "name": "",
          "type": "uint8"
        }
      ],
      "stateMutability": "view",
      "type": "function",
      "constant": true
    },
    {
      "inputs": [],
      "name": "name",
      "outputs": [
        {
          "internalType": "string",
          "name": "",
          "type": "string"
        }
      ],
      "stateMutability": "view",
      "type": "function",
      "constant": true
    },
    {
      "inputs": [],
      "name": "symbol",
      "outputs": [
        {
          "internalType": "string",
          "name": "",
          "type": "string"
        }
      ],
      "stateMutability": "view",
      "type": "function",
      "constant": true
    },
    {
      "inputs": [],
      "name": "totalSupply",
      "outputs": [
        {
          "internalType": "uint256",
          "name": "",
          "type": "uint256"
        }
      ],
      "stateMutability": "view",
      "type": "function",
      "constant": true
    },
    {
      "inputs": [
        {
          "internalType": "address",
          "name": "_to",
          "type": "address"
        },
        {
          "internalType": "uint256",
          "name": "_value",
          "type": "uint256"
        }
      ],
      "name": "transfer",
      "outputs": [
        {
          "internalType": "bool",
          "name": "success",
          "type": "bool"
        }
      ],
      "stateMutability": "nonpayable",
      "type": "function"
    },
    {
      "inputs": [
        {
          "internalType": "address",
          "name": "_spender",
          "type": "address"
        },
        {
          "internalType": "uint256",
          "name": "_value",
          "type": "uint256"
        }
      ],
      "name": "approve",
      "outputs": [
        {
          "internalType": "bool",
          "name": "success",
          "type": "bool"
        }
      ],
      "stateMutability": "nonpayable",
      "type": "function"
    },
    {
      "inputs": [
        {
          "internalType": "address",
          "name": "_from",
          "type": "address"
        },
        {
          "internalType": "address",
          "name": "_to",
          "type": "address"
        },
        {
          "internalType": "uint256",
          "name": "_value",
          "type": "uint256"
        }
      ],
      "name": "transferFrom",
      "outputs": [
        {
          "internalType": "bool",
          "name": "success",
          "type": "bool"
        }
      ],
      "stateMutability": "nonpayable",
      "type": "function"
    },
    {
      "inputs": [
        {
          "internalType": "uint256",
          "name": "_dai_to_buy",
          "type": "uint256"
        }
      ],
      "name": "buyDaiFromEther",
      "outputs": [],
      "stateMutability": "view",
      "type": "function",
      "constant": true
    }
  ],
  "bytecode": "0x60806040526040518060400160405280600e81526020017f4d6f636b2044414920546f6b656e000000000000000000000000000000000000815250600090805190602001906200005192919062000127565b506040518060400160405280600481526020017f6d44414900000000000000000000000000000000000000000000000000000000815250600190805190602001906200009f92919062000127565b506c0c9f2c9cd04674edea400000006002556012600360006101000a81548160ff021916908360ff160217905550348015620000da57600080fd5b50600254600460003373ffffffffffffffffffffffffffffffffffffffff1673ffffffffffffffffffffffffffffffffffffffff168152602001908152602001600020819055506200023c565b8280546200013590620001d7565b90600052602060002090601f016020900481019282620001595760008555620001a5565b82601f106200017457805160ff1916838001178555620001a5565b82800160010185558215620001a5579182015b82811115620001a457825182559160200191906001019062000187565b5b509050620001b49190620001b8565b5090565b5b80821115620001d3576000816000905550600101620001b9565b5090565b60006002820490506001821680620001f057607f821691505b602082108114156200020757620002066200020d565b5b50919050565b7f4e487b7100000000000000000000000000000000000000000000000000000000600052602260045260246000fd5b610ccc806200024c6000396000f3fe608060405234801561001057600080fd5b506004361061009e5760003560e01c806370a082311161006657806370a082311461015d57806395d89b411461018d578063a9059cbb146101ab578063dd62ed3e146101db578063eac467041461020b5761009e565b806306fdde03146100a3578063095ea7b3146100c157806318160ddd146100f157806323b872dd1461010f578063313ce5671461013f575b600080fd5b6100ab610227565b6040516100b89190610a41565b60405180910390f35b6100db60048036038101906100d6919061095b565b6102b5565b6040516100e89190610a26565b60405180910390f35b6100f96103a7565b6040516101069190610a63565b60405180910390f35b6101296004803603810190610124919061090c565b6103ad565b6040516101369190610a26565b60405180910390f35b610147610633565b6040516101549190610a7e565b60405180910390f35b610177600480360381019061017291906108a7565b610646565b6040516101849190610a63565b60405180910390f35b61019561065e565b6040516101a29190610a41565b60405180910390f35b6101c560048036038101906101c0919061095b565b6106ec565b6040516101d29190610a26565b60405180910390f35b6101f560048036038101906101f091906108d0565b610855565b6040516102029190610a63565b60405180910390f35b61022560048036038101906102209190610997565b61087a565b005b6000805461023490610bc7565b80601f016020809104026020016040519081016040528092919081815260200182805461026090610bc7565b80156102ad5780601f10610282576101008083540402835291602001916102ad565b820191906000526020600020905b81548152906001019060200180831161029057829003601f168201915b505050505081565b600081600560003373ffffffffffffffffffffffffffffffffffffffff1673ffffffffffffffffffffffffffffffffffffffff16815260200190815260200160002060008573ffffffffffffffffffffffffffffffffffffffff1673ffffffffffffffffffffffffffffffffffffffff168152602001908152602001600020819055508273ffffffffffffffffffffffffffffffffffffffff163373ffffffffffffffffffffffffffffffffffffffff167f8c5be1e5ebec7d5bd14f71427d1e84f3dd0314c0f7b2291e5b200ac8c7c3b925846040516103959190610a63565b60405180910390a36001905092915050565b60025481565b6000600460008573ffffffffffffffffffffffffffffffffffffffff1673ffffffffffffffffffffffffffffffffffffffff168152602001908152602001600020548211156103fb57600080fd5b600560008573ffffffffffffffffffffffffffffffffffffffff1673ffffffffffffffffffffffffffffffffffffffff16815260200190815260200160002060003373ffffffffffffffffffffffffffffffffffffffff1673ffffffffffffffffffffffffffffffffffffffff1681526020019081526020016000205482111561048457600080fd5b81600460008673ffffffffffffffffffffffffffffffffffffffff1673ffffffffffffffffffffffffffffffffffffffff16815260200190815260200160002060008282546104d39190610b0b565b9250508190555081600460008573ffffffffffffffffffffffffffffffffffffffff1673ffffffffffffffffffffffffffffffffffffffff16815260200190815260200160002060008282546105299190610ab5565b9250508190555081600560008673ffffffffffffffffffffffffffffffffffffffff1673ffffffffffffffffffffffffffffffffffffffff16815260200190815260200160002060003373ffffffffffffffffffffffffffffffffffffffff1673ffffffffffffffffffffffffffffffffffffffff16815260200190815260200160002060008282546105bc9190610b0b565b925050819055508273ffffffffffffffffffffffffffffffffffffffff168473ffffffffffffffffffffffffffffffffffffffff167fddf252ad1be2c89b69c2b068fc378daa952ba7f163c4a11628f55a4df523b3ef846040516106209190610a63565b60405180910390a3600190509392505050565b600360009054906101000a900460ff1681565b60046020528060005260406000206000915090505481565b6001805461066b90610bc7565b80601f016020809104026020016040519081016040528092919081815260200182805461069790610bc7565b80156106e45780601f106106b9576101008083540402835291602001916106e4565b820191906000526020600020905b8154815290600101906020018083116106c757829003601f168201915b505050505081565b600081600460003373ffffffffffffffffffffffffffffffffffffffff1673ffffffffffffffffffffffffffffffffffffffff16815260200190815260200160002054101561073a57600080fd5b81600460003373ffffffffffffffffffffffffffffffffffffffff1673ffffffffffffffffffffffffffffffffffffffff16815260200190815260200160002060008282546107899190610b0b565b9250508190555081600460008573ffffffffffffffffffffffffffffffffffffffff1673ffffffffffffffffffffffffffffffffffffffff16815260200190815260200160002060008282546107df9190610ab5565b925050819055508273ffffffffffffffffffffffffffffffffffffffff163373ffffffffffffffffffffffffffffffffffffffff167fddf252ad1be2c89b69c2b068fc378daa952ba7f163c4a11628f55a4df523b3ef846040516108439190610a63565b60405180910390a36001905092915050565b6005602052816000526040600020602052806000526040600020600091509150505481565b50565b60008135905061088c81610c68565b92915050565b6000813590506108a181610c7f565b92915050565b6000602082840312156108b957600080fd5b60006108c78482850161087d565b91505092915050565b600080604083850312156108e357600080fd5b60006108f18582860161087d565b92505060206109028582860161087d565b9150509250929050565b60008060006060848603121561092157600080fd5b600061092f8682870161087d565b93505060206109408682870161087d565b925050604061095186828701610892565b9150509250925092565b6000806040838503121561096e57600080fd5b600061097c8582860161087d565b925050602061098d85828601610892565b9150509250929050565b6000602082840312156109a957600080fd5b60006109b784828501610892565b91505092915050565b6109c981610b51565b82525050565b60006109da82610a99565b6109e48185610aa4565b93506109f4818560208601610b94565b6109fd81610c57565b840191505092915050565b610a1181610b7d565b82525050565b610a2081610b87565b82525050565b6000602082019050610a3b60008301846109c0565b92915050565b60006020820190508181036000830152610a5b81846109cf565b905092915050565b6000602082019050610a786000830184610a08565b92915050565b6000602082019050610a936000830184610a17565b92915050565b600081519050919050565b600082825260208201905092915050565b6000610ac082610b7d565b9150610acb83610b7d565b9250827fffffffffffffffffffffffffffffffffffffffffffffffffffffffffffffffff03821115610b0057610aff610bf9565b5b828201905092915050565b6000610b1682610b7d565b9150610b2183610b7d565b925082821015610b3457610b33610bf9565b5b828203905092915050565b6000610b4a82610b5d565b9050919050565b60008115159050919050565b600073ffffffffffffffffffffffffffffffffffffffff82169050919050565b6000819050919050565b600060ff82169050919050565b60005b83811015610bb2578082015181840152602081019050610b97565b83811115610bc1576000848401525b50505050565b60006002820490506001821680610bdf57607f821691505b60208210811415610bf357610bf2610c28565b5b50919050565b7f4e487b7100000000000000000000000000000000000000000000000000000000600052601160045260246000fd5b7f4e487b7100000000000000000000000000000000000000000000000000000000600052602260045260246000fd5b6000601f19601f8301169050919050565b610c7181610b3f565b8114610c7c57600080fd5b50565b610c8881610b7d565b8114610c9357600080fd5b5056fea2646970667358221220e2836d1d5462017a5e5339089a25e6b9ab9c3bd07017234c3e636c9f42caacb764736f6c63430008000033",
  "immutableReferences": {},
  "source": "pragma solidity ^0.8.0;\n\ncontract DaiToken {\n    string  public name = \"Mock DAI Token\";\n    string  public symbol = \"mDAI\";\n    uint256 public totalSupply = 1000000000000000000000000000000; // 1 million tokens\n    uint8   public decimals = 18;\n\n    event Transfer(\n        address indexed _from,\n        address indexed _to,\n        uint256 _value\n    );\n\n    event Approval(\n        address indexed _owner,\n        address indexed _spender,\n        uint256 _value\n    );\n\n    mapping(address => uint256) public balanceOf;\n    mapping(address => mapping(address => uint256)) public allowance;\n\n    constructor()  {\n        balanceOf[msg.sender] = totalSupply;\n    }\n\n    function transfer(address _to, uint256 _value) public returns (bool success) {\n        require(balanceOf[msg.sender] >= _value);\n        balanceOf[msg.sender] -= _value;\n        balanceOf[_to] += _value;\n        emit Transfer(msg.sender, _to, _value);\n        return true;\n    }\n\n    function approve(address _spender, uint256 _value) public returns (bool success) {\n        allowance[msg.sender][_spender] = _value;\n        emit Approval(msg.sender, _spender, _value);\n        return true;\n    }\n\n    function transferFrom(address _from, address _to, uint256 _value) public returns (bool success) {\n        require(_value <= balanceOf[_from]);\n        require(_value <= allowance[_from][msg.sender]);\n        balanceOf[_from] -= _value;\n        balanceOf[_to] += _value;\n        allowance[_from][msg.sender] -= _value;\n        emit Transfer(_from, _to, _value);\n        return true;\n    }\n\n    function buyDaiFromEther (uint256 _dai_to_buy) view public{\n       // this.transfer(msg.sender, _dai_to_buy);\naddress(this).call{value: _dai_to_buy};\n    }\n}\n",
  "sourcePath": "/home/ahmed/playground/epc/dera/src/contracts/DaiToken.sol",
  "compiler": {
    "name": "solc",
    "version": "0.8.0+commit.c7dfd78e.Emscripten.clang"
  },
  "schemaVersion": "3.4.10",
  "updatedAt": "2022-10-08T01:20:41.186Z",
  "networkType": "ethereum",
  "devdoc": {
    "kind": "dev",
    "methods": {},
    "version": 1
  },
  "userdoc": {
    "kind": "user",
    "methods": {},
    "version": 1
  }
}