{
  "contractName": "DEX",
  "abi": [
    {
      "inputs": [],
      "stateMutability": "nonpayable",
      "type": "constructor"
    },
    {
      "anonymous": false,
      "inputs": [
        {
          "indexed": false,
          "internalType": "uint256",
          "name": "amount",
          "type": "uint256"
        }
      ],
      "name": "Bought",
      "type": "event"
    },
    {
      "anonymous": false,
      "inputs": [
        {
          "indexed": false,
          "internalType": "uint256",
          "name": "amount",
          "type": "uint256"
        }
      ],
      "name": "Sold",
      "type": "event"
    },
    {
      "inputs": [],
      "name": "token",
      "outputs": [
        {
          "internalType": "contract IERC20",
          "name": "",
          "type": "address"
        }
      ],
      "stateMutability": "view",
      "type": "function",
      "constant": true
    },
    {
      "inputs": [],
      "name": "buy",
      "outputs": [],
      "stateMutability": "payable",
      "type": "function",
      "payable": true
    },
    {
      "inputs": [
        {
          "internalType": "uint256",
          "name": "amount",
          "type": "uint256"
        }
      ],
      "name": "sell",
      "outputs": [],
      "stateMutability": "nonpayable",
      "type": "function"
    }
  ],
  "bytecode": "0x608060405234801561001057600080fd5b5060405161001d9061007e565b604051809103906000f080158015610039573d6000803e3d6000fd5b506000806101000a81548173ffffffffffffffffffffffffffffffffffffffff021916908373ffffffffffffffffffffffffffffffffffffffff16021790555061008b565b610db280610a2783390190565b61098d8061009a6000396000f3fe6080604052600436106100345760003560e01c8063a6f2ae3a14610039578063e4849b3214610043578063fc0c546a1461006c575b600080fd5b610041610097565b005b34801561004f57600080fd5b5061006a600480360381019061006591906105ad565b6102b9565b005b34801561007857600080fd5b50610081610521565b60405161008e91906107f6565b60405180910390f35b600034905060008060009054906101000a900473ffffffffffffffffffffffffffffffffffffffff1673ffffffffffffffffffffffffffffffffffffffff166370a08231306040518263ffffffff1660e01b81526004016100f89190610752565b60206040518083038186803b15801561011057600080fd5b505afa158015610124573d6000803e3d6000fd5b505050506040513d601f19601f8201168201806040525081019061014891906105d6565b90506000821161018d576040517f08c379a000000000000000000000000000000000000000000000000000000000815260040161018490610871565b60405180910390fd5b808211156101d0576040517f08c379a00000000000000000000000000000000000000000000000000000000081526004016101c790610851565b60405180910390fd5b60008054906101000a900473ffffffffffffffffffffffffffffffffffffffff1673ffffffffffffffffffffffffffffffffffffffff1663a9059cbb33846040518363ffffffff1660e01b815260040161022b9291906107cd565b602060405180830381600087803b15801561024557600080fd5b505af1158015610259573d6000803e3d6000fd5b505050506040513d601f19601f8201168201806040525081019061027d9190610584565b507f4e08ba899977cf7d4c2964bce71c6b9a7ef76ee5166a4c1249a1e08016e33ef1826040516102ad9190610891565b60405180910390a15050565b600081116102fc576040517f08c379a00000000000000000000000000000000000000000000000000000000081526004016102f390610811565b60405180910390fd5b60008060009054906101000a900473ffffffffffffffffffffffffffffffffffffffff1673ffffffffffffffffffffffffffffffffffffffff1663dd62ed3e33306040518363ffffffff1660e01b815260040161035a92919061076d565b60206040518083038186803b15801561037257600080fd5b505afa158015610386573d6000803e3d6000fd5b505050506040513d601f19601f820116820180604052508101906103aa91906105d6565b9050818110156103ef576040517f08c379a00000000000000000000000000000000000000000000000000000000081526004016103e690610831565b60405180910390fd5b60008054906101000a900473ffffffffffffffffffffffffffffffffffffffff1673ffffffffffffffffffffffffffffffffffffffff166323b872dd3330856040518463ffffffff1660e01b815260040161044c93929190610796565b602060405180830381600087803b15801561046657600080fd5b505af115801561047a573d6000803e3d6000fd5b505050506040513d601f19601f8201168201806040525081019061049e9190610584565b503373ffffffffffffffffffffffffffffffffffffffff166108fc839081150290604051600060405180830381858888f193505050501580156104e5573d6000803e3d6000fd5b507f92f64ca637d023f354075a4be751b169c1a8a9ccb6d33cdd0cb3520543995727826040516105159190610891565b60405180910390a15050565b60008054906101000a900473ffffffffffffffffffffffffffffffffffffffff1681565b60008151905061055481610929565b92915050565b60008135905061056981610940565b92915050565b60008151905061057e81610940565b92915050565b60006020828403121561059657600080fd5b60006105a484828501610545565b91505092915050565b6000602082840312156105bf57600080fd5b60006105cd8482850161055a565b91505092915050565b6000602082840312156105e857600080fd5b60006105f68482850161056f565b91505092915050565b610608816108bd565b82525050565b61061781610905565b82525050565b600061062a6025836108ac565b91507f596f75206e65656420746f2073656c6c206174206c6561737420736f6d65207460008301527f6f6b656e730000000000000000000000000000000000000000000000000000006020830152604082019050919050565b60006106906019836108ac565b91507f436865636b2074686520746f6b656e20616c6c6f77616e6365000000000000006000830152602082019050919050565b60006106d06020836108ac565b91507f4e6f7420656e6f75676820746f6b656e7320696e2074686520726573657276656000830152602082019050919050565b6000610710601b836108ac565b91507f596f75206e65656420746f2073656e6420736f6d6520657468657200000000006000830152602082019050919050565b61074c816108fb565b82525050565b600060208201905061076760008301846105ff565b92915050565b600060408201905061078260008301856105ff565b61078f60208301846105ff565b9392505050565b60006060820190506107ab60008301866105ff565b6107b860208301856105ff565b6107c56040830184610743565b949350505050565b60006040820190506107e260008301856105ff565b6107ef6020830184610743565b9392505050565b600060208201905061080b600083018461060e565b92915050565b6000602082019050818103600083015261082a8161061d565b9050919050565b6000602082019050818103600083015261084a81610683565b9050919050565b6000602082019050818103600083015261086a816106c3565b9050919050565b6000602082019050818103600083015261088a81610703565b9050919050565b60006020820190506108a66000830184610743565b92915050565b600082825260208201905092915050565b60006108c8826108db565b9050919050565b60008115159050919050565b600073ffffffffffffffffffffffffffffffffffffffff82169050919050565b6000819050919050565b600061091082610917565b9050919050565b6000610922826108db565b9050919050565b610932816108cf565b811461093d57600080fd5b50565b610949816108fb565b811461095457600080fd5b5056fea2646970667358221220649d0e9b51ce72b4f87f42f1083d23b0e991fe289aca3ed0071c7c2359af42bf64736f6c634300080000336080604052678ac7230489e8000060025534801561001c57600080fd5b506002546000803373ffffffffffffffffffffffffffffffffffffffff1673ffffffffffffffffffffffffffffffffffffffff16815260200190815260200160002081905550610d41806100716000396000f3fe608060405234801561001057600080fd5b50600436106100935760003560e01c8063313ce56711610066578063313ce5671461013457806370a082311461015257806395d89b4114610182578063a9059cbb146101a0578063dd62ed3e146101d057610093565b806306fdde0314610098578063095ea7b3146100b657806318160ddd146100e657806323b872dd14610104575b600080fd5b6100a0610200565b6040516100ad9190610b17565b60405180910390f35b6100d060048036038101906100cb9190610a5a565b610239565b6040516100dd9190610afc565b60405180910390f35b6100ee61032b565b6040516100fb9190610b39565b60405180910390f35b61011e60048036038101906101199190610a0b565b610335565b60405161012b9190610afc565b60405180910390f35b61013c61069b565b6040516101499190610b54565b60405180910390f35b61016c600480360381019061016791906109a6565b6106a0565b6040516101799190610b39565b60405180910390f35b61018a6106e8565b6040516101979190610b17565b60405180910390f35b6101ba60048036038101906101b59190610a5a565b610721565b6040516101c79190610afc565b60405180910390f35b6101ea60048036038101906101e591906109cf565b6108f5565b6040516101f79190610b39565b60405180910390f35b6040518060400160405280600a81526020017f455243323042617369630000000000000000000000000000000000000000000081525081565b600081600160003373ffffffffffffffffffffffffffffffffffffffff1673ffffffffffffffffffffffffffffffffffffffff16815260200190815260200160002060008573ffffffffffffffffffffffffffffffffffffffff1673ffffffffffffffffffffffffffffffffffffffff168152602001908152602001600020819055508273ffffffffffffffffffffffffffffffffffffffff163373ffffffffffffffffffffffffffffffffffffffff167f8c5be1e5ebec7d5bd14f71427d1e84f3dd0314c0f7b2291e5b200ac8c7c3b925846040516103199190610b39565b60405180910390a36001905092915050565b6000600254905090565b60008060008573ffffffffffffffffffffffffffffffffffffffff1673ffffffffffffffffffffffffffffffffffffffff1681526020019081526020016000205482111561038257600080fd5b600160008573ffffffffffffffffffffffffffffffffffffffff1673ffffffffffffffffffffffffffffffffffffffff16815260200190815260200160002060003373ffffffffffffffffffffffffffffffffffffffff1673ffffffffffffffffffffffffffffffffffffffff1681526020019081526020016000205482111561040b57600080fd5b816000808673ffffffffffffffffffffffffffffffffffffffff1673ffffffffffffffffffffffffffffffffffffffff168152602001908152602001600020546104559190610be1565b6000808673ffffffffffffffffffffffffffffffffffffffff1673ffffffffffffffffffffffffffffffffffffffff1681526020019081526020016000208190555081600160008673ffffffffffffffffffffffffffffffffffffffff1673ffffffffffffffffffffffffffffffffffffffff16815260200190815260200160002060003373ffffffffffffffffffffffffffffffffffffffff1673ffffffffffffffffffffffffffffffffffffffff1681526020019081526020016000205461051f9190610be1565b600160008673ffffffffffffffffffffffffffffffffffffffff1673ffffffffffffffffffffffffffffffffffffffff16815260200190815260200160002060003373ffffffffffffffffffffffffffffffffffffffff1673ffffffffffffffffffffffffffffffffffffffff16815260200190815260200160002081905550816000808573ffffffffffffffffffffffffffffffffffffffff1673ffffffffffffffffffffffffffffffffffffffff168152602001908152602001600020546105e99190610b8b565b6000808573ffffffffffffffffffffffffffffffffffffffff1673ffffffffffffffffffffffffffffffffffffffff168152602001908152602001600020819055508273ffffffffffffffffffffffffffffffffffffffff168473ffffffffffffffffffffffffffffffffffffffff167fddf252ad1be2c89b69c2b068fc378daa952ba7f163c4a11628f55a4df523b3ef846040516106889190610b39565b60405180910390a3600190509392505050565b601281565b60008060008373ffffffffffffffffffffffffffffffffffffffff1673ffffffffffffffffffffffffffffffffffffffff168152602001908152602001600020549050919050565b6040518060400160405280600381526020017f455243000000000000000000000000000000000000000000000000000000000081525081565b60008060003373ffffffffffffffffffffffffffffffffffffffff1673ffffffffffffffffffffffffffffffffffffffff1681526020019081526020016000205482111561076e57600080fd5b816000803373ffffffffffffffffffffffffffffffffffffffff1673ffffffffffffffffffffffffffffffffffffffff168152602001908152602001600020546107b89190610be1565b6000803373ffffffffffffffffffffffffffffffffffffffff1673ffffffffffffffffffffffffffffffffffffffff16815260200190815260200160002081905550816000808573ffffffffffffffffffffffffffffffffffffffff1673ffffffffffffffffffffffffffffffffffffffff168152602001908152602001600020546108449190610b8b565b6000808573ffffffffffffffffffffffffffffffffffffffff1673ffffffffffffffffffffffffffffffffffffffff168152602001908152602001600020819055508273ffffffffffffffffffffffffffffffffffffffff163373ffffffffffffffffffffffffffffffffffffffff167fddf252ad1be2c89b69c2b068fc378daa952ba7f163c4a11628f55a4df523b3ef846040516108e39190610b39565b60405180910390a36001905092915050565b6000600160008473ffffffffffffffffffffffffffffffffffffffff1673ffffffffffffffffffffffffffffffffffffffff16815260200190815260200160002060008373ffffffffffffffffffffffffffffffffffffffff1673ffffffffffffffffffffffffffffffffffffffff16815260200190815260200160002054905092915050565b60008135905061098b81610cdd565b92915050565b6000813590506109a081610cf4565b92915050565b6000602082840312156109b857600080fd5b60006109c68482850161097c565b91505092915050565b600080604083850312156109e257600080fd5b60006109f08582860161097c565b9250506020610a018582860161097c565b9150509250929050565b600080600060608486031215610a2057600080fd5b6000610a2e8682870161097c565b9350506020610a3f8682870161097c565b9250506040610a5086828701610991565b9150509250925092565b60008060408385031215610a6d57600080fd5b6000610a7b8582860161097c565b9250506020610a8c85828601610991565b9150509250929050565b610a9f81610c27565b82525050565b6000610ab082610b6f565b610aba8185610b7a565b9350610aca818560208601610c6a565b610ad381610ccc565b840191505092915050565b610ae781610c53565b82525050565b610af681610c5d565b82525050565b6000602082019050610b116000830184610a96565b92915050565b60006020820190508181036000830152610b318184610aa5565b905092915050565b6000602082019050610b4e6000830184610ade565b92915050565b6000602082019050610b696000830184610aed565b92915050565b600081519050919050565b600082825260208201905092915050565b6000610b9682610c53565b9150610ba183610c53565b9250827fffffffffffffffffffffffffffffffffffffffffffffffffffffffffffffffff03821115610bd657610bd5610c9d565b5b828201905092915050565b6000610bec82610c53565b9150610bf783610c53565b925082821015610c0a57610c09610c9d565b5b828203905092915050565b6000610c2082610c33565b9050919050565b60008115159050919050565b600073ffffffffffffffffffffffffffffffffffffffff82169050919050565b6000819050919050565b600060ff82169050919050565b60005b83811015610c88578082015181840152602081019050610c6d565b83811115610c97576000848401525b50505050565b7f4e487b7100000000000000000000000000000000000000000000000000000000600052601160045260246000fd5b6000601f19601f8301169050919050565b610ce681610c15565b8114610cf157600080fd5b50565b610cfd81610c53565b8114610d0857600080fd5b5056fea264697066735822122004b91025f0b4f2757c25a582e663262017544dc9266e4e1c9f52548469dfefe064736f6c63430008000033",
  "immutableReferences": {},
  "source": "pragma solidity ^0.8.0;\n\ninterface IERC20 {\n\n    function totalSupply() external view returns (uint256);\n    function balanceOf(address account) external view returns (uint256);\n    function allowance(address owner, address spender) external view returns (uint256);\n\n    function transfer(address recipient, uint256 amount) external returns (bool);\n    function approve(address spender, uint256 amount) external returns (bool);\n    function transferFrom(address sender, address recipient, uint256 amount) external returns (bool);\n\n\n    event Transfer(address indexed from, address indexed to, uint256 value);\n    event Approval(address indexed owner, address indexed spender, uint256 value);\n}\n\n\ncontract ERC20Basic is IERC20 {\n\n    string public constant name = \"ERC20Basic\";\n    string public constant symbol = \"ERC\";\n    uint8 public constant decimals = 18;\n\n\n    mapping(address => uint256) balances;\n\n    mapping(address => mapping (address => uint256)) allowed;\n\n    uint256 totalSupply_ = 10 ether;\n\n\n   constructor() {\n    balances[msg.sender] = totalSupply_;\n    }\n\n    function totalSupply() public override view returns (uint256) {\n    return totalSupply_;\n    }\n\n    function balanceOf(address tokenOwner) public override view returns (uint256) {\n        return balances[tokenOwner];\n    }\n\n    function transfer(address receiver, uint256 numTokens) public override returns (bool) {\n        require(numTokens <= balances[msg.sender]);\n        balances[msg.sender] = balances[msg.sender]-numTokens;\n        balances[receiver] = balances[receiver]+numTokens;\n        emit Transfer(msg.sender, receiver, numTokens);\n        return true;\n    }\n\n    function approve(address delegate, uint256 numTokens) public override returns (bool) {\n        allowed[msg.sender][delegate] = numTokens;\n        emit Approval(msg.sender, delegate, numTokens);\n        return true;\n    }\n\n    function allowance(address owner, address delegate) public override view returns (uint) {\n        return allowed[owner][delegate];\n    }\n\n    function transferFrom(address owner, address buyer, uint256 numTokens) public override returns (bool) {\n        require(numTokens <= balances[owner]);\n        require(numTokens <= allowed[owner][msg.sender]);\n\n        balances[owner] = balances[owner]-numTokens;\n        allowed[owner][msg.sender] = allowed[owner][msg.sender]-numTokens;\n        balances[buyer] = balances[buyer]+numTokens;\n        emit Transfer(owner, buyer, numTokens);\n        return true;\n    }\n}\n\n\ncontract DEX {\n\n    event Bought(uint256 amount);\n    event Sold(uint256 amount);\n\n\n    IERC20 public token;\n\n    constructor() {\n        token = new ERC20Basic();\n    }\n\n    function buy() payable public {\n        uint256 amountTobuy = msg.value;\n        uint256 dexBalance = token.balanceOf(address(this));\n        require(amountTobuy > 0, \"You need to send some ether\");\n        require(amountTobuy <= dexBalance, \"Not enough tokens in the reserve\");\n        token.transfer(msg.sender, amountTobuy);\n        emit Bought(amountTobuy);\n    }\n\n    function sell(uint256 amount) public {\n        require(amount > 0, \"You need to sell at least some tokens\");\n        uint256 allowance = token.allowance(msg.sender, address(this));\n        require(allowance >= amount, \"Check the token allowance\");\n        token.transferFrom(msg.sender, address(this), amount);\n        payable(msg.sender).transfer(amount);\n        emit Sold(amount);\n    }\n\n}\n\n",
  "sourcePath": "/home/ahmed/playground/epc/dera/src/contracts/DEX.sol",
  "compiler": {
    "name": "solc",
    "version": "0.8.0+commit.c7dfd78e.Emscripten.clang"
  },
  "schemaVersion": "3.4.10",
  "updatedAt": "2022-10-08T01:20:42.573Z",
  "networkType": "ethereum",
  "devdoc": {
    "kind": "dev",
    "methods": {},
    "version": 1
  },
  "userdoc": {
    "kind": "user",
    "methods": {},
    "version": 1
  }
}